{
  "_format": "hh-sol-artifact-1",
  "contractName": "GhibliChain",
  "sourceName": "contracts/GhibliChain.sol",
  "abi": [
    {
      "inputs": [
        {
          "internalType": "address",
          "name": "initialOwner",
          "type": "address"
        }
      ],
      "stateMutability": "nonpayable",
      "type": "constructor"
    },
    {
      "inputs": [
        {
          "internalType": "address",
          "name": "sender",
          "type": "address"
        },
        {
          "internalType": "uint256",
          "name": "tokenId",
          "type": "uint256"
        },
        {
          "internalType": "address",
          "name": "owner",
          "type": "address"
        }
      ],
      "name": "ERC721IncorrectOwner",
      "type": "error"
    },
    {
      "inputs": [
        {
          "internalType": "address",
          "name": "operator",
          "type": "address"
        },
        {
          "internalType": "uint256",
          "name": "tokenId",
          "type": "uint256"
        }
      ],
      "name": "ERC721InsufficientApproval",
      "type": "error"
    },
    {
      "inputs": [
        {
          "internalType": "address",
          "name": "approver",
          "type": "address"
        }
      ],
      "name": "ERC721InvalidApprover",
      "type": "error"
    },
    {
      "inputs": [
        {
          "internalType": "address",
          "name": "operator",
          "type": "address"
        }
      ],
      "name": "ERC721InvalidOperator",
      "type": "error"
    },
    {
      "inputs": [
        {
          "internalType": "address",
          "name": "owner",
          "type": "address"
        }
      ],
      "name": "ERC721InvalidOwner",
      "type": "error"
    },
    {
      "inputs": [
        {
          "internalType": "address",
          "name": "receiver",
          "type": "address"
        }
      ],
      "name": "ERC721InvalidReceiver",
      "type": "error"
    },
    {
      "inputs": [
        {
          "internalType": "address",
          "name": "sender",
          "type": "address"
        }
      ],
      "name": "ERC721InvalidSender",
      "type": "error"
    },
    {
      "inputs": [
        {
          "internalType": "uint256",
          "name": "tokenId",
          "type": "uint256"
        }
      ],
      "name": "ERC721NonexistentToken",
      "type": "error"
    },
    {
      "inputs": [
        {
          "internalType": "address",
          "name": "owner",
          "type": "address"
        }
      ],
      "name": "OwnableInvalidOwner",
      "type": "error"
    },
    {
      "inputs": [
        {
          "internalType": "address",
          "name": "account",
          "type": "address"
        }
      ],
      "name": "OwnableUnauthorizedAccount",
      "type": "error"
    },
    {
      "anonymous": false,
      "inputs": [
        {
          "indexed": true,
          "internalType": "address",
          "name": "owner",
          "type": "address"
        },
        {
          "indexed": true,
          "internalType": "address",
          "name": "approved",
          "type": "address"
        },
        {
          "indexed": true,
          "internalType": "uint256",
          "name": "tokenId",
          "type": "uint256"
        }
      ],
      "name": "Approval",
      "type": "event"
    },
    {
      "anonymous": false,
      "inputs": [
        {
          "indexed": true,
          "internalType": "address",
          "name": "owner",
          "type": "address"
        },
        {
          "indexed": true,
          "internalType": "address",
          "name": "operator",
          "type": "address"
        },
        {
          "indexed": false,
          "internalType": "bool",
          "name": "approved",
          "type": "bool"
        }
      ],
      "name": "ApprovalForAll",
      "type": "event"
    },
    {
      "anonymous": false,
      "inputs": [
        {
          "indexed": false,
          "internalType": "uint256",
          "name": "_fromTokenId",
          "type": "uint256"
        },
        {
          "indexed": false,
          "internalType": "uint256",
          "name": "_toTokenId",
          "type": "uint256"
        }
      ],
      "name": "BatchMetadataUpdate",
      "type": "event"
    },
    {
      "anonymous": false,
      "inputs": [
        {
          "indexed": false,
          "internalType": "uint256",
          "name": "storyId",
          "type": "uint256"
        },
        {
          "indexed": false,
          "internalType": "uint256",
          "name": "tokenId",
          "type": "uint256"
        },
        {
          "indexed": false,
          "internalType": "string",
          "name": "tokenURI",
          "type": "string"
        }
      ],
      "name": "FrameMinted",
      "type": "event"
    },
    {
      "anonymous": false,
      "inputs": [
        {
          "indexed": false,
          "internalType": "uint256",
          "name": "_tokenId",
          "type": "uint256"
        }
      ],
      "name": "MetadataUpdate",
      "type": "event"
    },
    {
      "anonymous": false,
      "inputs": [
        {
          "indexed": false,
          "internalType": "uint256",
          "name": "tokenId",
          "type": "uint256"
        },
        {
          "indexed": false,
          "internalType": "string",
          "name": "comment",
          "type": "string"
        }
      ],
      "name": "NFTCommented",
      "type": "event"
    },
    {
      "anonymous": false,
      "inputs": [
        {
          "indexed": false,
          "internalType": "uint256",
          "name": "tokenId",
          "type": "uint256"
        },
        {
          "indexed": false,
          "internalType": "uint256",
          "name": "likes",
          "type": "uint256"
        }
      ],
      "name": "NFTLiked",
      "type": "event"
    },
    {
      "anonymous": false,
      "inputs": [
        {
          "indexed": true,
          "internalType": "address",
          "name": "previousOwner",
          "type": "address"
        },
        {
          "indexed": true,
          "internalType": "address",
          "name": "newOwner",
          "type": "address"
        }
      ],
      "name": "OwnershipTransferred",
      "type": "event"
    },
    {
      "anonymous": false,
      "inputs": [
        {
          "indexed": false,
          "internalType": "uint256",
          "name": "storyId",
          "type": "uint256"
        },
        {
          "indexed": false,
          "internalType": "string",
          "name": "title",
          "type": "string"
        },
        {
          "indexed": false,
          "internalType": "address",
          "name": "creator",
          "type": "address"
        }
      ],
      "name": "StoryCreated",
      "type": "event"
    },
    {
      "anonymous": false,
      "inputs": [
        {
          "indexed": true,
          "internalType": "address",
          "name": "from",
          "type": "address"
        },
        {
          "indexed": true,
          "internalType": "address",
          "name": "to",
          "type": "address"
        },
        {
          "indexed": true,
          "internalType": "uint256",
          "name": "tokenId",
          "type": "uint256"
        }
      ],
      "name": "Transfer",
      "type": "event"
    },
    {
      "inputs": [
        {
          "internalType": "address",
          "name": "to",
          "type": "address"
        },
        {
          "internalType": "uint256",
          "name": "tokenId",
          "type": "uint256"
        }
      ],
      "name": "approve",
      "outputs": [],
      "stateMutability": "nonpayable",
      "type": "function"
    },
    {
      "inputs": [
        {
          "internalType": "address",
          "name": "owner",
          "type": "address"
        }
      ],
      "name": "balanceOf",
      "outputs": [
        {
          "internalType": "uint256",
          "name": "",
          "type": "uint256"
        }
      ],
      "stateMutability": "view",
      "type": "function"
    },
    {
      "inputs": [
        {
          "internalType": "uint256",
          "name": "tokenId",
          "type": "uint256"
        },
        {
          "internalType": "string",
          "name": "comment",
          "type": "string"
        }
      ],
      "name": "commentNFT",
      "outputs": [],
      "stateMutability": "nonpayable",
      "type": "function"
    },
    {
      "inputs": [
        {
          "internalType": "string",
          "name": "title",
          "type": "string"
        }
      ],
      "name": "createStory",
      "outputs": [
        {
          "internalType": "uint256",
          "name": "",
          "type": "uint256"
        }
      ],
      "stateMutability": "nonpayable",
      "type": "function"
    },
    {
      "inputs": [
        {
          "internalType": "uint256",
          "name": "tokenId",
          "type": "uint256"
        }
      ],
      "name": "getApproved",
      "outputs": [
        {
          "internalType": "address",
          "name": "",
          "type": "address"
        }
      ],
      "stateMutability": "view",
      "type": "function"
    },
    {
      "inputs": [
        {
          "internalType": "uint256",
          "name": "tokenId",
          "type": "uint256"
        }
      ],
      "name": "getNFTMetadata",
      "outputs": [
        {
          "internalType": "uint256",
          "name": "likes",
          "type": "uint256"
        },
        {
          "internalType": "string[]",
          "name": "comments",
          "type": "string[]"
        }
      ],
      "stateMutability": "view",
      "type": "function"
    },
    {
      "inputs": [
        {
          "internalType": "uint256",
          "name": "storyId",
          "type": "uint256"
        }
      ],
      "name": "getStoryFrames",
      "outputs": [
        {
          "internalType": "uint256[]",
          "name": "",
          "type": "uint256[]"
        }
      ],
      "stateMutability": "view",
      "type": "function"
    },
    {
      "inputs": [
        {
          "internalType": "address",
          "name": "owner",
          "type": "address"
        },
        {
          "internalType": "address",
          "name": "operator",
          "type": "address"
        }
      ],
      "name": "isApprovedForAll",
      "outputs": [
        {
          "internalType": "bool",
          "name": "",
          "type": "bool"
        }
      ],
      "stateMutability": "view",
      "type": "function"
    },
    {
      "inputs": [
        {
          "internalType": "uint256",
          "name": "tokenId",
          "type": "uint256"
        }
      ],
      "name": "likeNFT",
      "outputs": [],
      "stateMutability": "nonpayable",
      "type": "function"
    },
    {
      "inputs": [
        {
          "internalType": "uint256",
          "name": "storyId",
          "type": "uint256"
        },
        {
          "internalType": "string",
          "name": "tokenURI",
          "type": "string"
        }
      ],
      "name": "mintFrame",
      "outputs": [],
      "stateMutability": "nonpayable",
      "type": "function"
    },
    {
      "inputs": [],
      "name": "name",
      "outputs": [
        {
          "internalType": "string",
          "name": "",
          "type": "string"
        }
      ],
      "stateMutability": "view",
      "type": "function"
    },
    {
      "inputs": [
        {
          "internalType": "uint256",
          "name": "",
          "type": "uint256"
        }
      ],
      "name": "nftMetadata",
      "outputs": [
        {
          "internalType": "uint256",
          "name": "likes",
          "type": "uint256"
        }
      ],
      "stateMutability": "view",
      "type": "function"
    },
    {
      "inputs": [
        {
          "internalType": "uint256",
          "name": "",
          "type": "uint256"
        }
      ],
      "name": "nftToStory",
      "outputs": [
        {
          "internalType": "uint256",
          "name": "",
          "type": "uint256"
        }
      ],
      "stateMutability": "view",
      "type": "function"
    },
    {
      "inputs": [],
      "name": "owner",
      "outputs": [
        {
          "internalType": "address",
          "name": "",
          "type": "address"
        }
      ],
      "stateMutability": "view",
      "type": "function"
    },
    {
      "inputs": [
        {
          "internalType": "uint256",
          "name": "tokenId",
          "type": "uint256"
        }
      ],
      "name": "ownerOf",
      "outputs": [
        {
          "internalType": "address",
          "name": "",
          "type": "address"
        }
      ],
      "stateMutability": "view",
      "type": "function"
    },
    {
      "inputs": [],
      "name": "renounceOwnership",
      "outputs": [],
      "stateMutability": "nonpayable",
      "type": "function"
    },
    {
      "inputs": [
        {
          "internalType": "address",
          "name": "from",
          "type": "address"
        },
        {
          "internalType": "address",
          "name": "to",
          "type": "address"
        },
        {
          "internalType": "uint256",
          "name": "tokenId",
          "type": "uint256"
        }
      ],
      "name": "safeTransferFrom",
      "outputs": [],
      "stateMutability": "nonpayable",
      "type": "function"
    },
    {
      "inputs": [
        {
          "internalType": "address",
          "name": "from",
          "type": "address"
        },
        {
          "internalType": "address",
          "name": "to",
          "type": "address"
        },
        {
          "internalType": "uint256",
          "name": "tokenId",
          "type": "uint256"
        },
        {
          "internalType": "bytes",
          "name": "data",
          "type": "bytes"
        }
      ],
      "name": "safeTransferFrom",
      "outputs": [],
      "stateMutability": "nonpayable",
      "type": "function"
    },
    {
      "inputs": [
        {
          "internalType": "address",
          "name": "operator",
          "type": "address"
        },
        {
          "internalType": "bool",
          "name": "approved",
          "type": "bool"
        }
      ],
      "name": "setApprovalForAll",
      "outputs": [],
      "stateMutability": "nonpayable",
      "type": "function"
    },
    {
      "inputs": [
        {
          "internalType": "uint256",
          "name": "",
          "type": "uint256"
        }
      ],
      "name": "stories",
      "outputs": [
        {
          "internalType": "uint256",
          "name": "storyId",
          "type": "uint256"
        },
        {
          "internalType": "address",
          "name": "creator",
          "type": "address"
        },
        {
          "internalType": "string",
          "name": "title",
          "type": "string"
        }
      ],
      "stateMutability": "view",
      "type": "function"
    },
    {
      "inputs": [
        {
          "internalType": "bytes4",
          "name": "interfaceId",
          "type": "bytes4"
        }
      ],
      "name": "supportsInterface",
      "outputs": [
        {
          "internalType": "bool",
          "name": "",
          "type": "bool"
        }
      ],
      "stateMutability": "view",
      "type": "function"
    },
    {
      "inputs": [],
      "name": "symbol",
      "outputs": [
        {
          "internalType": "string",
          "name": "",
          "type": "string"
        }
      ],
      "stateMutability": "view",
      "type": "function"
    },
    {
      "inputs": [],
      "name": "tokenCounter",
      "outputs": [
        {
          "internalType": "uint256",
          "name": "",
          "type": "uint256"
        }
      ],
      "stateMutability": "view",
      "type": "function"
    },
    {
      "inputs": [
        {
          "internalType": "uint256",
          "name": "tokenId",
          "type": "uint256"
        }
      ],
      "name": "tokenURI",
      "outputs": [
        {
          "internalType": "string",
          "name": "",
          "type": "string"
        }
      ],
      "stateMutability": "view",
      "type": "function"
    },
    {
      "inputs": [
        {
          "internalType": "address",
          "name": "from",
          "type": "address"
        },
        {
          "internalType": "address",
          "name": "to",
          "type": "address"
        },
        {
          "internalType": "uint256",
          "name": "tokenId",
          "type": "uint256"
        }
      ],
      "name": "transferFrom",
      "outputs": [],
      "stateMutability": "nonpayable",
      "type": "function"
    },
    {
      "inputs": [
        {
          "internalType": "address",
          "name": "newOwner",
          "type": "address"
        }
      ],
      "name": "transferOwnership",
      "outputs": [],
      "stateMutability": "nonpayable",
      "type": "function"
    }
  ],
  "bytecode": "0x60806040523480156200001157600080fd5b5060405162003aa838038062003aa8833981810160405281019062000037919062000290565b806040518060400160405280600e81526020017f476869626c69436861696e4e46540000000000000000000000000000000000008152506040518060400160405280600681526020017f474849424c4900000000000000000000000000000000000000000000000000008152508160009081620000b591906200053c565b508060019081620000c791906200053c565b505050600073ffffffffffffffffffffffffffffffffffffffff168173ffffffffffffffffffffffffffffffffffffffff16036200013f5760006040517f1e4fbdf700000000000000000000000000000000000000000000000000000000815260040162000136919062000634565b60405180910390fd5b62000150816200016060201b60201c565b5060006008819055505062000651565b6000600760009054906101000a900473ffffffffffffffffffffffffffffffffffffffff16905081600760006101000a81548173ffffffffffffffffffffffffffffffffffffffff021916908373ffffffffffffffffffffffffffffffffffffffff1602179055508173ffffffffffffffffffffffffffffffffffffffff168173ffffffffffffffffffffffffffffffffffffffff167f8be0079c531659141344cd1fd0a4f28419497f9722a3daafe3b4186f6b6457e060405160405180910390a35050565b600080fd5b600073ffffffffffffffffffffffffffffffffffffffff82169050919050565b600062000258826200022b565b9050919050565b6200026a816200024b565b81146200027657600080fd5b50565b6000815190506200028a816200025f565b92915050565b600060208284031215620002a957620002a862000226565b5b6000620002b98482850162000279565b91505092915050565b600081519050919050565b7f4e487b7100000000000000000000000000000000000000000000000000000000600052604160045260246000fd5b7f4e487b7100000000000000000000000000000000000000000000000000000000600052602260045260246000fd5b600060028204905060018216806200034457607f821691505b6020821081036200035a5762000359620002fc565b5b50919050565b60008190508160005260206000209050919050565b60006020601f8301049050919050565b600082821b905092915050565b600060088302620003c47fffffffffffffffffffffffffffffffffffffffffffffffffffffffffffffffff8262000385565b620003d0868362000385565b95508019841693508086168417925050509392505050565b6000819050919050565b6000819050919050565b60006200041d620004176200041184620003e8565b620003f2565b620003e8565b9050919050565b6000819050919050565b6200043983620003fc565b62000451620004488262000424565b84845462000392565b825550505050565b600090565b6200046862000459565b620004758184846200042e565b505050565b5b818110156200049d57620004916000826200045e565b6001810190506200047b565b5050565b601f821115620004ec57620004b68162000360565b620004c18462000375565b81016020851015620004d1578190505b620004e9620004e08562000375565b8301826200047a565b50505b505050565b600082821c905092915050565b60006200051160001984600802620004f1565b1980831691505092915050565b60006200052c8383620004fe565b9150826002028217905092915050565b6200054782620002c2565b67ffffffffffffffff811115620005635762000562620002cd565b5b6200056f82546200032b565b6200057c828285620004a1565b600060209050601f831160018114620005b457600084156200059f578287015190505b620005ab85826200051e565b8655506200061b565b601f198416620005c48662000360565b60005b82811015620005ee57848901518255600182019150602085019450602081019050620005c7565b868310156200060e57848901516200060a601f891682620004fe565b8355505b6001600288020188555050505b505050505050565b6200062e816200024b565b82525050565b60006020820190506200064b600083018462000623565b92915050565b61344780620006616000396000f3fe608060405234801561001057600080fd5b506004361061018e5760003560e01c8063715018a6116100de578063b88d4fde11610097578063da472a0f11610071578063da472a0f146104d0578063e985e9c5146104ec578063ed7463841461051c578063f2fde38b146105385761018e565b8063b88d4fde14610466578063c87b56dd14610482578063d082e381146104b25761018e565b8063715018a6146103a25780638a3b6ab8146103ac5780638da5cb5b146103de57806395d89b41146103fc5780639d9f92d81461041a578063a22cb4651461044a5761018e565b80632da80e771161014b578063578ec7e511610125578063578ec7e5146102e15780636352211e146103115780636be9a6f11461034157806370a08231146103725761018e565b80632da80e771461027957806342842e0e1461029557806349541015146102b15761018e565b806301ffc9a71461019357806306fdde03146101c3578063081812fc146101e1578063095ea7b314610211578063106737131461022d57806323b872dd1461025d575b600080fd5b6101ad60048036038101906101a891906124bb565b610554565b6040516101ba9190612503565b60405180910390f35b6101cb6105b5565b6040516101d891906125ae565b60405180910390f35b6101fb60048036038101906101f69190612606565b610647565b6040516102089190612674565b60405180910390f35b61022b600480360381019061022691906126bb565b610663565b005b61024760048036038101906102429190612606565b610679565b60405161025491906127b9565b60405180910390f35b610277600480360381019061027291906127db565b6106e7565b005b610293600480360381019061028e9190612963565b6107e9565b005b6102af60048036038101906102aa91906127db565b61086f565b005b6102cb60048036038101906102c69190612606565b61088f565b6040516102d891906129ce565b60405180910390f35b6102fb60048036038101906102f69190612606565b6108ad565b60405161030891906129ce565b60405180910390f35b61032b60048036038101906103269190612606565b6108c5565b6040516103389190612674565b60405180910390f35b61035b60048036038101906103569190612606565b6108d7565b604051610369929190612af5565b60405180910390f35b61038c60048036038101906103879190612b25565b6109e4565b60405161039991906129ce565b60405180910390f35b6103aa610a9e565b005b6103c660048036038101906103c19190612606565b610ab2565b6040516103d593929190612b52565b60405180910390f35b6103e6610b84565b6040516103f39190612674565b60405180910390f35b610404610bae565b60405161041191906125ae565b60405180910390f35b610434600480360381019061042f9190612b90565b610c40565b60405161044191906129ce565b60405180910390f35b610464600480360381019061045f9190612c05565b610dbe565b005b610480600480360381019061047b9190612ce6565b610dd4565b005b61049c60048036038101906104979190612606565b610df9565b6040516104a991906125ae565b60405180910390f35b6104ba610f0c565b6040516104c791906129ce565b60405180910390f35b6104ea60048036038101906104e59190612606565b610f12565b005b61050660048036038101906105019190612d69565b610f90565b6040516105139190612503565b60405180910390f35b61053660048036038101906105319190612963565b611024565b005b610552600480360381019061054d9190612b25565b611231565b005b6000634906490660e01b7bffffffffffffffffffffffffffffffffffffffffffffffffffffffff1916827bffffffffffffffffffffffffffffffffffffffffffffffffffffffff191614806105ae57506105ad826112b7565b5b9050919050565b6060600080546105c490612dd8565b80601f01602080910402602001604051908101604052809291908181526020018280546105f090612dd8565b801561063d5780601f106106125761010080835404028352916020019161063d565b820191906000526020600020905b81548152906001019060200180831161062057829003601f168201915b5050505050905090565b600061065282611399565b5061065c82611421565b9050919050565b610675828261067061145e565b611466565b5050565b6060600960008381526020019081526020016000206003018054806020026020016040519081016040528092919081815260200182805480156106db57602002820191906000526020600020905b8154815260200190600101908083116106c7575b50505050509050919050565b600073ffffffffffffffffffffffffffffffffffffffff168273ffffffffffffffffffffffffffffffffffffffff16036107595760006040517f64a0ae920000000000000000000000000000000000000000000000000000000081526004016107509190612674565b60405180910390fd5b600061076d838361076861145e565b611478565b90508373ffffffffffffffffffffffffffffffffffffffff168173ffffffffffffffffffffffffffffffffffffffff16146107e3578382826040517f64283d7b0000000000000000000000000000000000000000000000000000000081526004016107da93929190612e09565b60405180910390fd5b50505050565b600b6000838152602001908152602001600020600101819080600181540180825580915050600190039060005260206000200160009091909190915090816108319190612fec565b507f8657d7374c11000a475fd93d52a42c587bbbb3e608a4b1d9fd941efdacd5beb482826040516108639291906130be565b60405180910390a15050565b61088a83838360405180602001604052806000815250610dd4565b505050565b600b6020528060005260406000206000915090508060000154905081565b600a6020528060005260406000206000915090505481565b60006108d082611399565b9050919050565b60006060600b600084815260200190815260200160002060000154600b600085815260200190815260200160002060010180805480602002602001604051908101604052809291908181526020016000905b828210156109d557838290600052602060002001805461094890612dd8565b80601f016020809104026020016040519081016040528092919081815260200182805461097490612dd8565b80156109c15780601f10610996576101008083540402835291602001916109c1565b820191906000526020600020905b8154815290600101906020018083116109a457829003601f168201915b505050505081526020019060010190610929565b50505050905091509150915091565b60008073ffffffffffffffffffffffffffffffffffffffff168273ffffffffffffffffffffffffffffffffffffffff1603610a575760006040517f89c62b64000000000000000000000000000000000000000000000000000000008152600401610a4e9190612674565b60405180910390fd5b600360008373ffffffffffffffffffffffffffffffffffffffff1673ffffffffffffffffffffffffffffffffffffffff168152602001908152602001600020549050919050565b610aa6611692565b610ab06000611719565b565b60096020528060005260406000206000915090508060000154908060010160009054906101000a900473ffffffffffffffffffffffffffffffffffffffff1690806002018054610b0190612dd8565b80601f0160208091040260200160405190810160405280929190818152602001828054610b2d90612dd8565b8015610b7a5780601f10610b4f57610100808354040283529160200191610b7a565b820191906000526020600020905b815481529060010190602001808311610b5d57829003601f168201915b5050505050905083565b6000600760009054906101000a900473ffffffffffffffffffffffffffffffffffffffff16905090565b606060018054610bbd90612dd8565b80601f0160208091040260200160405190810160405280929190818152602001828054610be990612dd8565b8015610c365780601f10610c0b57610100808354040283529160200191610c36565b820191906000526020600020905b815481529060010190602001808311610c1957829003601f168201915b5050505050905090565b600080600854905060405180608001604052808281526020013373ffffffffffffffffffffffffffffffffffffffff168152602001848152602001600067ffffffffffffffff811115610c9657610c95612838565b5b604051908082528060200260200182016040528015610cc45781602001602082028036833780820191505090505b50815250600960008381526020019081526020016000206000820151816000015560208201518160010160006101000a81548173ffffffffffffffffffffffffffffffffffffffff021916908373ffffffffffffffffffffffffffffffffffffffff1602179055506040820151816002019081610d419190612fec565b506060820151816003019080519060200190610d5e929190612328565b509050507fcde4c4546d4b1a68bd88af874f8482dcb0581f2d850e70c4797b44144039ac27818433604051610d95939291906130ee565b60405180910390a160086000815480929190610db09061315b565b919050555080915050919050565b610dd0610dc961145e565b83836117df565b5050565b610ddf8484846106e7565b610df3610dea61145e565b8585858561194e565b50505050565b6060610e0482611399565b506000600660008481526020019081526020016000208054610e2590612dd8565b80601f0160208091040260200160405190810160405280929190818152602001828054610e5190612dd8565b8015610e9e5780601f10610e7357610100808354040283529160200191610e9e565b820191906000526020600020905b815481529060010190602001808311610e8157829003601f168201915b505050505090506000610eaf611aff565b90506000815103610ec4578192505050610f07565b600082511115610ef9578082604051602001610ee19291906131df565b60405160208183030381529060405292505050610f07565b610f0284611b16565b925050505b919050565b60085481565b600b60008281526020019081526020016000206000016000815480929190610f399061315b565b91905055507f9c0501bb988c0b928acf729ef26790b03a2511c6b78948b5e89c1bfdd8f38e2881600b600084815260200190815260200160002060000154604051610f85929190613203565b60405180910390a150565b6000600560008473ffffffffffffffffffffffffffffffffffffffff1673ffffffffffffffffffffffffffffffffffffffff16815260200190815260200160002060008373ffffffffffffffffffffffffffffffffffffffff1673ffffffffffffffffffffffffffffffffffffffff16815260200190815260200160002060009054906101000a900460ff16905092915050565b3373ffffffffffffffffffffffffffffffffffffffff166009600084815260200190815260200160002060010160009054906101000a900473ffffffffffffffffffffffffffffffffffffffff1673ffffffffffffffffffffffffffffffffffffffff16146110c8576040517f08c379a00000000000000000000000000000000000000000000000000000000081526004016110bf90613278565b60405180910390fd5b600060085490506110d93382611b7f565b6110e38183611b9d565b6009600084815260200190815260200160002060030181908060018154018082558091505060019003906000526020600020016000909190919091505582600a600083815260200190815260200160002081905550604051806040016040528060008152602001600067ffffffffffffffff81111561116557611164612838565b5b60405190808252806020026020018201604052801561119857816020015b60608152602001906001900390816111835790505b50815250600b60008381526020019081526020016000206000820151816000015560208201518160010190805190602001906111d5929190612375565b509050507f788b3ea6691ce90cace9856141a7a7a0e610da4d65b7bd58668a9870e18395ab83828460405161120c93929190613298565b60405180910390a1600860008154809291906112279061315b565b9190505550505050565b611239611692565b600073ffffffffffffffffffffffffffffffffffffffff168173ffffffffffffffffffffffffffffffffffffffff16036112ab5760006040517f1e4fbdf70000000000000000000000000000000000000000000000000000000081526004016112a29190612674565b60405180910390fd5b6112b481611719565b50565b60007f80ac58cd000000000000000000000000000000000000000000000000000000007bffffffffffffffffffffffffffffffffffffffffffffffffffffffff1916827bffffffffffffffffffffffffffffffffffffffffffffffffffffffff1916148061138257507f5b5e139f000000000000000000000000000000000000000000000000000000007bffffffffffffffffffffffffffffffffffffffffffffffffffffffff1916827bffffffffffffffffffffffffffffffffffffffffffffffffffffffff1916145b80611392575061139182611bf9565b5b9050919050565b6000806113a583611c63565b9050600073ffffffffffffffffffffffffffffffffffffffff168173ffffffffffffffffffffffffffffffffffffffff160361141857826040517f7e27328900000000000000000000000000000000000000000000000000000000815260040161140f91906129ce565b60405180910390fd5b80915050919050565b60006004600083815260200190815260200160002060009054906101000a900473ffffffffffffffffffffffffffffffffffffffff169050919050565b600033905090565b6114738383836001611ca0565b505050565b60008061148484611c63565b9050600073ffffffffffffffffffffffffffffffffffffffff168373ffffffffffffffffffffffffffffffffffffffff16146114c6576114c5818486611e65565b5b600073ffffffffffffffffffffffffffffffffffffffff168173ffffffffffffffffffffffffffffffffffffffff161461155757611508600085600080611ca0565b6001600360008373ffffffffffffffffffffffffffffffffffffffff1673ffffffffffffffffffffffffffffffffffffffff168152602001908152602001600020600082825403925050819055505b600073ffffffffffffffffffffffffffffffffffffffff168573ffffffffffffffffffffffffffffffffffffffff16146115da576001600360008773ffffffffffffffffffffffffffffffffffffffff1673ffffffffffffffffffffffffffffffffffffffff168152602001908152602001600020600082825401925050819055505b846002600086815260200190815260200160002060006101000a81548173ffffffffffffffffffffffffffffffffffffffff021916908373ffffffffffffffffffffffffffffffffffffffff160217905550838573ffffffffffffffffffffffffffffffffffffffff168273ffffffffffffffffffffffffffffffffffffffff167fddf252ad1be2c89b69c2b068fc378daa952ba7f163c4a11628f55a4df523b3ef60405160405180910390a4809150509392505050565b61169a61145e565b73ffffffffffffffffffffffffffffffffffffffff166116b8610b84565b73ffffffffffffffffffffffffffffffffffffffff1614611717576116db61145e565b6040517f118cdaa700000000000000000000000000000000000000000000000000000000815260040161170e9190612674565b60405180910390fd5b565b6000600760009054906101000a900473ffffffffffffffffffffffffffffffffffffffff16905081600760006101000a81548173ffffffffffffffffffffffffffffffffffffffff021916908373ffffffffffffffffffffffffffffffffffffffff1602179055508173ffffffffffffffffffffffffffffffffffffffff168173ffffffffffffffffffffffffffffffffffffffff167f8be0079c531659141344cd1fd0a4f28419497f9722a3daafe3b4186f6b6457e060405160405180910390a35050565b600073ffffffffffffffffffffffffffffffffffffffff168273ffffffffffffffffffffffffffffffffffffffff160361185057816040517f5b08ba180000000000000000000000000000000000000000000000000000000081526004016118479190612674565b60405180910390fd5b80600560008573ffffffffffffffffffffffffffffffffffffffff1673ffffffffffffffffffffffffffffffffffffffff16815260200190815260200160002060008473ffffffffffffffffffffffffffffffffffffffff1673ffffffffffffffffffffffffffffffffffffffff16815260200190815260200160002060006101000a81548160ff0219169083151502179055508173ffffffffffffffffffffffffffffffffffffffff168373ffffffffffffffffffffffffffffffffffffffff167f17307eab39ab6107e8899845ad3d59bd9653f200f220920489ca2b5937696c31836040516119419190612503565b60405180910390a3505050565b60008373ffffffffffffffffffffffffffffffffffffffff163b1115611af8578273ffffffffffffffffffffffffffffffffffffffff1663150b7a02868685856040518563ffffffff1660e01b81526004016119ad949392919061332b565b6020604051808303816000875af19250505080156119e957506040513d601f19601f820116820180604052508101906119e6919061338c565b60015b611a6d573d8060008114611a19576040519150601f19603f3d011682016040523d82523d6000602084013e611a1e565b606091505b506000815103611a6557836040517f64a0ae92000000000000000000000000000000000000000000000000000000008152600401611a5c9190612674565b60405180910390fd5b805181602001fd5b63150b7a0260e01b7bffffffffffffffffffffffffffffffffffffffffffffffffffffffff1916817bffffffffffffffffffffffffffffffffffffffffffffffffffffffff191614611af657836040517f64a0ae92000000000000000000000000000000000000000000000000000000008152600401611aed9190612674565b60405180910390fd5b505b5050505050565b606060405180602001604052806000815250905090565b6060611b2182611399565b506000611b2c611aff565b90506000815111611b4c5760405180602001604052806000815250611b77565b80611b5684611f29565b604051602001611b679291906131df565b6040516020818303038152906040525b915050919050565b611b99828260405180602001604052806000815250611ff7565b5050565b80600660008481526020019081526020016000209081611bbd9190612fec565b507ff8e1a15aba9398e019f0b49df1a4fde98ee17ae345cb5f6b5e2c27f5033e8ce782604051611bed91906129ce565b60405180910390a15050565b60007f01ffc9a7000000000000000000000000000000000000000000000000000000007bffffffffffffffffffffffffffffffffffffffffffffffffffffffff1916827bffffffffffffffffffffffffffffffffffffffffffffffffffffffff1916149050919050565b60006002600083815260200190815260200160002060009054906101000a900473ffffffffffffffffffffffffffffffffffffffff169050919050565b8080611cd95750600073ffffffffffffffffffffffffffffffffffffffff168273ffffffffffffffffffffffffffffffffffffffff1614155b15611e0d576000611ce984611399565b9050600073ffffffffffffffffffffffffffffffffffffffff168373ffffffffffffffffffffffffffffffffffffffff1614158015611d5457508273ffffffffffffffffffffffffffffffffffffffff168173ffffffffffffffffffffffffffffffffffffffff1614155b8015611d675750611d658184610f90565b155b15611da957826040517fa9fbf51f000000000000000000000000000000000000000000000000000000008152600401611da09190612674565b60405180910390fd5b8115611e0b57838573ffffffffffffffffffffffffffffffffffffffff168273ffffffffffffffffffffffffffffffffffffffff167f8c5be1e5ebec7d5bd14f71427d1e84f3dd0314c0f7b2291e5b200ac8c7c3b92560405160405180910390a45b505b836004600085815260200190815260200160002060006101000a81548173ffffffffffffffffffffffffffffffffffffffff021916908373ffffffffffffffffffffffffffffffffffffffff16021790555050505050565b611e7083838361201b565b611f2457600073ffffffffffffffffffffffffffffffffffffffff168373ffffffffffffffffffffffffffffffffffffffff1603611ee557806040517f7e273289000000000000000000000000000000000000000000000000000000008152600401611edc91906129ce565b60405180910390fd5b81816040517f177e802f000000000000000000000000000000000000000000000000000000008152600401611f1b9291906133b9565b60405180910390fd5b505050565b606060006001611f38846120dc565b01905060008167ffffffffffffffff811115611f5757611f56612838565b5b6040519080825280601f01601f191660200182016040528015611f895781602001600182028036833780820191505090505b509050600082602001820190505b600115611fec578080600190039150507f3031323334353637383961626364656600000000000000000000000000000000600a86061a8153600a8581611fe057611fdf6133e2565b5b04945060008503611f97575b819350505050919050565b612001838361222f565b61201661200c61145e565b600085858561194e565b505050565b60008073ffffffffffffffffffffffffffffffffffffffff168373ffffffffffffffffffffffffffffffffffffffff16141580156120d357508273ffffffffffffffffffffffffffffffffffffffff168473ffffffffffffffffffffffffffffffffffffffff16148061209457506120938484610f90565b5b806120d257508273ffffffffffffffffffffffffffffffffffffffff166120ba83611421565b73ffffffffffffffffffffffffffffffffffffffff16145b5b90509392505050565b600080600090507a184f03e93ff9f4daa797ed6e38ed64bf6a1f010000000000000000831061213a577a184f03e93ff9f4daa797ed6e38ed64bf6a1f01000000000000000083816121305761212f6133e2565b5b0492506040810190505b6d04ee2d6d415b85acef81000000008310612177576d04ee2d6d415b85acef8100000000838161216d5761216c6133e2565b5b0492506020810190505b662386f26fc1000083106121a657662386f26fc10000838161219c5761219b6133e2565b5b0492506010810190505b6305f5e10083106121cf576305f5e10083816121c5576121c46133e2565b5b0492506008810190505b61271083106121f45761271083816121ea576121e96133e2565b5b0492506004810190505b60648310612217576064838161220d5761220c6133e2565b5b0492506002810190505b600a8310612226576001810190505b80915050919050565b600073ffffffffffffffffffffffffffffffffffffffff168273ffffffffffffffffffffffffffffffffffffffff16036122a15760006040517f64a0ae920000000000000000000000000000000000000000000000000000000081526004016122989190612674565b60405180910390fd5b60006122af83836000611478565b9050600073ffffffffffffffffffffffffffffffffffffffff168173ffffffffffffffffffffffffffffffffffffffff16146123235760006040517f73c6ac6e00000000000000000000000000000000000000000000000000000000815260040161231a9190612674565b60405180910390fd5b505050565b828054828255906000526020600020908101928215612364579160200282015b82811115612363578251825591602001919060010190612348565b5b50905061237191906123ce565b5090565b8280548282559060005260206000209081019282156123bd579160200282015b828111156123bc5782518290816123ac9190612fec565b5091602001919060010190612395565b5b5090506123ca91906123eb565b5090565b5b808211156123e75760008160009055506001016123cf565b5090565b5b8082111561240b5760008181612402919061240f565b506001016123ec565b5090565b50805461241b90612dd8565b6000825580601f1061242d575061244c565b601f01602090049060005260206000209081019061244b91906123ce565b5b50565b6000604051905090565b600080fd5b600080fd5b60007fffffffff0000000000000000000000000000000000000000000000000000000082169050919050565b61249881612463565b81146124a357600080fd5b50565b6000813590506124b58161248f565b92915050565b6000602082840312156124d1576124d0612459565b5b60006124df848285016124a6565b91505092915050565b60008115159050919050565b6124fd816124e8565b82525050565b600060208201905061251860008301846124f4565b92915050565b600081519050919050565b600082825260208201905092915050565b60005b8381101561255857808201518184015260208101905061253d565b60008484015250505050565b6000601f19601f8301169050919050565b60006125808261251e565b61258a8185612529565b935061259a81856020860161253a565b6125a381612564565b840191505092915050565b600060208201905081810360008301526125c88184612575565b905092915050565b6000819050919050565b6125e3816125d0565b81146125ee57600080fd5b50565b600081359050612600816125da565b92915050565b60006020828403121561261c5761261b612459565b5b600061262a848285016125f1565b91505092915050565b600073ffffffffffffffffffffffffffffffffffffffff82169050919050565b600061265e82612633565b9050919050565b61266e81612653565b82525050565b60006020820190506126896000830184612665565b92915050565b61269881612653565b81146126a357600080fd5b50565b6000813590506126b58161268f565b92915050565b600080604083850312156126d2576126d1612459565b5b60006126e0858286016126a6565b92505060206126f1858286016125f1565b9150509250929050565b600081519050919050565b600082825260208201905092915050565b6000819050602082019050919050565b612730816125d0565b82525050565b60006127428383612727565b60208301905092915050565b6000602082019050919050565b6000612766826126fb565b6127708185612706565b935061277b83612717565b8060005b838110156127ac5781516127938882612736565b975061279e8361274e565b92505060018101905061277f565b5085935050505092915050565b600060208201905081810360008301526127d3818461275b565b905092915050565b6000806000606084860312156127f4576127f3612459565b5b6000612802868287016126a6565b9350506020612813868287016126a6565b9250506040612824868287016125f1565b9150509250925092565b600080fd5b600080fd5b7f4e487b7100000000000000000000000000000000000000000000000000000000600052604160045260246000fd5b61287082612564565b810181811067ffffffffffffffff8211171561288f5761288e612838565b5b80604052505050565b60006128a261244f565b90506128ae8282612867565b919050565b600067ffffffffffffffff8211156128ce576128cd612838565b5b6128d782612564565b9050602081019050919050565b82818337600083830152505050565b6000612906612901846128b3565b612898565b90508281526020810184848401111561292257612921612833565b5b61292d8482856128e4565b509392505050565b600082601f83011261294a5761294961282e565b5b813561295a8482602086016128f3565b91505092915050565b6000806040838503121561297a57612979612459565b5b6000612988858286016125f1565b925050602083013567ffffffffffffffff8111156129a9576129a861245e565b5b6129b585828601612935565b9150509250929050565b6129c8816125d0565b82525050565b60006020820190506129e360008301846129bf565b92915050565b600081519050919050565b600082825260208201905092915050565b6000819050602082019050919050565b600082825260208201905092915050565b6000612a318261251e565b612a3b8185612a15565b9350612a4b81856020860161253a565b612a5481612564565b840191505092915050565b6000612a6b8383612a26565b905092915050565b6000602082019050919050565b6000612a8b826129e9565b612a9581856129f4565b935083602082028501612aa785612a05565b8060005b85811015612ae35784840389528151612ac48582612a5f565b9450612acf83612a73565b925060208a01995050600181019050612aab565b50829750879550505050505092915050565b6000604082019050612b0a60008301856129bf565b8181036020830152612b1c8184612a80565b90509392505050565b600060208284031215612b3b57612b3a612459565b5b6000612b49848285016126a6565b91505092915050565b6000606082019050612b6760008301866129bf565b612b746020830185612665565b8181036040830152612b868184612575565b9050949350505050565b600060208284031215612ba657612ba5612459565b5b600082013567ffffffffffffffff811115612bc457612bc361245e565b5b612bd084828501612935565b91505092915050565b612be2816124e8565b8114612bed57600080fd5b50565b600081359050612bff81612bd9565b92915050565b60008060408385031215612c1c57612c1b612459565b5b6000612c2a858286016126a6565b9250506020612c3b85828601612bf0565b9150509250929050565b600067ffffffffffffffff821115612c6057612c5f612838565b5b612c6982612564565b9050602081019050919050565b6000612c89612c8484612c45565b612898565b905082815260208101848484011115612ca557612ca4612833565b5b612cb08482856128e4565b509392505050565b600082601f830112612ccd57612ccc61282e565b5b8135612cdd848260208601612c76565b91505092915050565b60008060008060808587031215612d0057612cff612459565b5b6000612d0e878288016126a6565b9450506020612d1f878288016126a6565b9350506040612d30878288016125f1565b925050606085013567ffffffffffffffff811115612d5157612d5061245e565b5b612d5d87828801612cb8565b91505092959194509250565b60008060408385031215612d8057612d7f612459565b5b6000612d8e858286016126a6565b9250506020612d9f858286016126a6565b9150509250929050565b7f4e487b7100000000000000000000000000000000000000000000000000000000600052602260045260246000fd5b60006002820490506001821680612df057607f821691505b602082108103612e0357612e02612da9565b5b50919050565b6000606082019050612e1e6000830186612665565b612e2b60208301856129bf565b612e386040830184612665565b949350505050565b60008190508160005260206000209050919050565b60006020601f8301049050919050565b600082821b905092915050565b600060088302612ea27fffffffffffffffffffffffffffffffffffffffffffffffffffffffffffffffff82612e65565b612eac8683612e65565b95508019841693508086168417925050509392505050565b6000819050919050565b6000612ee9612ee4612edf846125d0565b612ec4565b6125d0565b9050919050565b6000819050919050565b612f0383612ece565b612f17612f0f82612ef0565b848454612e72565b825550505050565b600090565b612f2c612f1f565b612f37818484612efa565b505050565b5b81811015612f5b57612f50600082612f24565b600181019050612f3d565b5050565b601f821115612fa057612f7181612e40565b612f7a84612e55565b81016020851015612f89578190505b612f9d612f9585612e55565b830182612f3c565b50505b505050565b600082821c905092915050565b6000612fc360001984600802612fa5565b1980831691505092915050565b6000612fdc8383612fb2565b9150826002028217905092915050565b612ff58261251e565b67ffffffffffffffff81111561300e5761300d612838565b5b6130188254612dd8565b613023828285612f5f565b600060209050601f8311600181146130565760008415613044578287015190505b61304e8582612fd0565b8655506130b6565b601f19841661306486612e40565b60005b8281101561308c57848901518255600182019150602085019450602081019050613067565b868310156130a957848901516130a5601f891682612fb2565b8355505b6001600288020188555050505b505050505050565b60006040820190506130d360008301856129bf565b81810360208301526130e58184612575565b90509392505050565b600060608201905061310360008301866129bf565b81810360208301526131158185612575565b90506131246040830184612665565b949350505050565b7f4e487b7100000000000000000000000000000000000000000000000000000000600052601160045260246000fd5b6000613166826125d0565b91507fffffffffffffffffffffffffffffffffffffffffffffffffffffffffffffffff82036131985761319761312c565b5b600182019050919050565b600081905092915050565b60006131b98261251e565b6131c381856131a3565b93506131d381856020860161253a565b80840191505092915050565b60006131eb82856131ae565b91506131f782846131ae565b91508190509392505050565b600060408201905061321860008301856129bf565b61322560208301846129bf565b9392505050565b7f4e6f74207468652073746f7279206f776e657200000000000000000000000000600082015250565b6000613262601383612529565b915061326d8261322c565b602082019050919050565b6000602082019050818103600083015261329181613255565b9050919050565b60006060820190506132ad60008301866129bf565b6132ba60208301856129bf565b81810360408301526132cc8184612575565b9050949350505050565b600081519050919050565b600082825260208201905092915050565b60006132fd826132d6565b61330781856132e1565b935061331781856020860161253a565b61332081612564565b840191505092915050565b60006080820190506133406000830187612665565b61334d6020830186612665565b61335a60408301856129bf565b818103606083015261336c81846132f2565b905095945050505050565b6000815190506133868161248f565b92915050565b6000602082840312156133a2576133a1612459565b5b60006133b084828501613377565b91505092915050565b60006040820190506133ce6000830185612665565b6133db60208301846129bf565b9392505050565b7f4e487b7100000000000000000000000000000000000000000000000000000000600052601260045260246000fdfea264697066735822122050a4966fc51e6b19058fbc1714f08d1d603676345848f7ae2ea5f939d393c32964736f6c63430008140033",
  "linkReferences": {},
  "deployedLinkReferences": {}
}